:100000000C9496000C94B3000C94B3000C94B300C1
:100010000C94B3000C94B3000C94B3000C94B30094
:100020000C94B3000C94B3000C94BD030C94B30077
:100030000C94B3000C94B3000C94B3000C94B30074
:100040000C94B3000C94B3000C94B3000C94B30064
:100050000C94B300D100EA0005011E0136013601FF
:1000600036013601360136013601360136013601D8
:1000700036013601360136013601360136013601C8
:1000800036013601360136013601360136013601B8
:1000900036013601D100EA0005011E0143015C0171
:1000A00075018E01A601A601A601A601A601A60161
:1000B000A601A601A601A601A601A601A601A60108
:1000C000A601A601A601A601A601A601A601A601F8
:1000D000A601A601A601A601A601A60143015C0195
:1000E00075018E01B201B401B601B801B901B901BF
:1000F000B901B901B901B901B901B901B901B90130
:10010000B901B901B901B901B901B901B901B9011F
:10011000B901B901B901B901B901B901B901B9010F
:10012000B901B901B201B401B601B80111241FBE71
:10013000CFE5D8E0DEBFCDBF10E0A0E6B0E0ECEA4E
:10014000F7E002C005900D92A639B107D9F720E07B
:10015000A6E9B0E001C01D92A839B207E1F70E94FC
:10016000AD020C94D4030C94000083B7886083BF65
:1001700080E58CBF83B7816083BF83B7846083BF12
:10018000789489B7826089BF089590E0FC01E154BA
:10019000F109E432F10508F069C0E65DFF4F0C9407
:1001A000CE03413059F42AB381E090E002C0880FB9
:1001B000991F6A95E2F7822B8ABB08952AB381E0E2
:1001C00090E002C0880F991F6A95E2F7809582231C
:1001D0008ABB0895413061F427B381E090E0062E98
:1001E00002C0880F991F0A94E2F7822B87BB0FC0C9
:1001F00027B381E090E0062E02C0880F991F0A9471
:10020000E2F78095822387BB0DC0413059F424B3B7
:1002100081E090E002C0880F991F6A95E2F7822B77
:1002200084BB089524B381E090E002C0880F991F39
:100230006A95E2F78095822384BB0895413059F492
:1002400021B381E090E002C0880F991F6A95E2F720
:10025000822B81BB089521B381E090E002C0880F1A
:10026000991F6A95E2F78095822381BB089590E0FB
:10027000FC01E154F109E432F10508F067C0E25BEA
:10028000FF4F0C94CE03413059F42BB381E090E042
:1002900002C0880F991F6A95E2F7822B8BBB0895E5
:1002A0002BB381E090E002C0880F991F6A95E2F7B6
:1002B000809582238BBB0895413059F428B381E0A7
:1002C00090E002C0880F991F6A95E2F7822B88BBE5
:1002D000089528B381E090E002C0880F991F6A95C5
:1002E000E2F78095822388BB0895413059F425B305
:1002F00081E090E002C0880F991F6A95E2F7822B97
:1003000085BB089525B381E090E002C0880F991F56
:100310006A95E2F78095822385BB0895413059F4B0
:1003200022B381E090E002C0880F991F6A95E2F73E
:10033000822B82BB089522B381E090E002C0880F37
:10034000991F6A95E2F78095822382BB089590E019
:10035000FC01E154F109E432F10558F4EE58FF4F85
:100360000C94CE036ABB089567BB089564BB0895DF
:1003700061BB08956295607F823479F018F481340E
:1003800031F00895833479F0843499F008958BB373
:100390008F708BBB8BB3862B8BBB88B38F7088BB66
:1003A00088B3862B88BB85B38F7085BB85B3862BBE
:1003B00085BB82B38F7082BB82B3682B62BB08950A
:1003C00041E061E084E40E9437018FE99FE00197FA
:1003D000F1F700C0000040E061E084E40E943701D2
:1003E0008FE99FE00197F1F700C000000895CF93D7
:1003F000C82F682F62956F7084E40E94BA0140E0B4
:1004000060E084E40E9437010E94E0016C2F84E4E4
:100410000E94BA010E94E0018FEC97E00197F1F78A
:1004200000C00000CF9108952FEF81EE94E021509D
:1004300080409040E1F700C0000060EF84E40E943B
:10044000A70141E060E084E40E94C50041E061E072
:1004500084E40E94C50082E00E94F7018FE19EE4DF
:100460000197F1F700C0000088E20E94F7018FECCD
:1004700097E00197F1F700C000008CE00E94F701BF
:100480008FEC97E00197F1F700C0000081E00E9437
:10049000F7018FE19EE40197F1F700C0000086E0CC
:1004A0000E94F7018FEC97E00197F1F700C0000080
:1004B0000895CF93C82F682F62956F7084E40E94CF
:1004C000BA0141E060E084E40E9437010E94E0014B
:1004D0006C2F84E40E94BA010E94E001CF9108953C
:1004E000CF93DF93EC018881882331F021960E941D
:1004F000590289918111FBCFDF91CF9108959FEF30
:10050000980F923020F49FEF960F903120F080E802
:10051000809396000BC0813021F46158609396005F
:1005200005C0823019F46154609396008091960062
:100530000E94F7018FEC97E00197F1F700C00000EF
:10054000089541E00E94C500089541E00E943701EE
:10055000089540E00E943701089560E082E40E941F
:10056000A10261E082E40E94A10262E082E40E94B2
:10057000A1020E9414020E94B50004E115E0DFE030
:10058000CDEC0093620010936100D093600081E095
:100590000E94F70183E690E00E94700260E082E42E
:1005A0000E94A50236C0809197008436A0F1109277
:1005B00097009150909362006BE081E00E947F026F
:1005C000809162008A3048F480E20E945902809152
:1005D0006200805D0E9459021CC08436D0F48C9F5A
:1005E000812D1124869586958695805D0E945902FD
:1005F000809162008C9F912D1124969596959695E9
:10060000990F292F220F220F920F891B805D0E94C4
:100610005902909162009111C6CF2FEF89E698E1BF
:10062000215080409040E1F700C0000010929700F8
:1006300060E082E40E94A90261E082E40E94A502D7
:1006400081E00E94F70184E790E00E94700236C0CA
:10065000809197008436A0F110929700915090936A
:1006600061006BE081E00E947F02809161008A302E
:1006700048F480E20E94590280916100805D0E94EE
:1006800059021CC08436D0F48C9F812D112486958C
:1006900086958695805D0E945902809161008C9FAD
:1006A000912D1124969596959695990F292F220FA5
:1006B000220F920F891B805D0E9459029091610068
:1006C0009111C6CF809197008536E0F31092970084
:1006D00061E082E40E94A90281E00E94F70185E8BE
:1006E00090E00E94700262E082E40E94A50236C09F
:1006F000809197008436A0F11092970091509093CA
:1007000060006BE081E00E947F02809160008A308F
:1007100048F480E20E94590280916000805D0E944E
:1007200059021CC08436D0F48C9F812D11248695EB
:1007300086958695805D0E945902809160008C9F0D
:10074000912D1124969596959695990F292F220F04
:10075000220F920F891B805D0E94590290916000C8
:100760009111C6CF809197008536E0F310929700E3
:1007700062E082E40E94A90204CF1F920F920FB69A
:100780000F9211248F93809197008F5F8093970031
:100790008F910F900FBE0F901F901895EE0FFF1FB7
:0C07A0000590F491E02D0994F894FFCF2F
:1007AC000F051472656D61696E696E6720323020B9
:1007BC007365630072656D61696E696E67202035C3
:1007CC00207365630072656D61696E696E672031B7
:0607DC0035207365630087
:00000001FF
